:100000000C9436000C945E000C945E000C945E0020
:100010000C945E000C945E000C945E000C945E00E8
:100020000C945E000C945E000C945E000C945E00D8
:100030000C945E000C945E000C945E000C945E00C8
:100040000C94D4020C945E000C9444030C941E0394
:100050000C945E000C945E000C945E000C945E00A8
:100060000C945E000C945E007603BC0411241FBE49
:10007000CFEFD8E0DEBFCDBF21E0A2E2B1E001C00A
:100080001D92A23DB207E1F711E0A0E0B1E0E8EA7D
:10009000FEE002C005900D92A232B107D9F710E040
:1000A000C5E3D0E004C02197FE010E942C05C433B3
:1000B000D107C9F70E94B1030C9447070C940000C4
:1000C000CF92DF92EF92FF920F931F93CF93DF9324
:1000D0006C017A018B01C0E0D0E0CE15DF0589F01C
:1000E000D8016D918D01D601ED91FC910190F081C7
:1000F000E02DC6010995892B11F47E0102C02196DD
:10010000ECCFC701DF91CF911F910F91FF90EF903E
:10011000DF90CF900895FC01918D828D981761F04A
:10012000828DDF01A80FB11D5D968C91928D9F5F2E
:100130009F73928F90E008958FEF9FEF0895FC01D9
:10014000918D828D981731F0828DE80FF11D858D8C
:1001500090E008958FEF9FEF0895FC01918D228D1F
:10016000892F90E0805C9F4F821B91098F739927A4
:1001700008958BE291E00E94AD0021E0892B09F403
:1001800020E0822F0895FC01848DDF01A80FB11DAE
:10019000A35ABF4F2C91848D90E001968F739927BD
:1001A000848FA689B7892C93A089B1898C918064AA
:1001B0008C93938D848D981306C00288F389E02D6B
:1001C00080818F7D80830895EF92FF920F931F931C
:1001D000CF93DF93EC0181E0888F9B8D8C8D9813FA
:1001E00005C0E889F989808185FD24C0F62E0B8D34
:1001F00010E00F5F1F4F0F731127E02E8C8DE81258
:100200000CC00FB607FCFACFE889F989808185FF19
:10021000F5CFCE010E94C300F1CF8B8DFE01E80F18
:10022000F11DE35AFF4FF0820B8FEA89FB89808131
:10023000806207C0EE89FF896083E889F98980813F
:100240008064808381E090E0DF91CF911F910F91D6
:10025000FF90EF900895CF93DF93EC01888D882372
:10026000C9F0EA89FB89808185FD05C0A889B98923
:100270008C9186FD0FC00FB607FCF5CF808185FFFE
:10028000F2CFA889B9898C9185FFEDCFCE010E946C
:10029000C300E7CFDF91CF910895009769F0FC018B
:1002A00001900020E9F73197AF01481B590BBC01C1
:1002B0008BE291E00C94600080E090E008950E9451
:1002C00029070F931F93CF93DF93EC0188819981C6
:1002D000009729F02A813B812617370788F48B0184
:1002E0006F5F7F4F0E945F06009761F0998388835C
:1002F0001B830A832C813D81232B11F4FC01108286
:1003000081E001C080E0DF91CF911F910F910895AE
:10031000EF92FF920F931F93CF93DF93FC01248101
:1003200035816115710511F480E019C04115510541
:10033000A9F07B01EC018A01020F131FB8010E9492
:100340006101882389F3288139818C819D81B701DE
:10035000820F931F0E9440071D830C8381E0DF9171
:10036000CF911F910F91FF90EF900895CF93DF935E
:10037000EC0188819981009711F00E94C7051982CC
:1003800018821D821C821B821A82DF91CF910895F0
:10039000CF93DF93EC016115710561F0FB010190D2
:1003A0000020E9F73197AF01461B570B0E948801E7
:1003B000811103C0CE010E94B601CE01DF91CF9121
:1003C0000895EF92FF920F931F93CF93DF93EC0169
:1003D0007B018A01BA010E946101811104C0CE0132
:1003E0000E94B60107C01D830C83B70188819981E3
:1003F0000E944007CE01DF91CF911F910F91FF9096
:10040000EF900895CF93DF93EC016115710559F0DA
:10041000FB0101900020E9F73197AF01461B570B14
:100420000E94E10102C00E94B601CE01DF91CF918E
:100430000895CF93DF93EC01FB018617970761F0D6
:10044000608171816115710529F0448155810E9497
:10045000E10102C00E94B601CE01DF91CF91089563
:10046000FC011182108213821282158214820C9474
:100470001902FC01808191810C94C7050F931F9391
:10048000CF93DF93CDB7DEB72C970FB6F894DEBFCE
:100490000FBECDBF8BE291E00E948B00082F1A8225
:1004A00019821C821B821E821D828F831886BE01C8
:1004B000695F7F4FCE0101960E9402028D819E816D
:1004C000892B49F06CE171E089819A810E9437079C
:1004D00011E0892B09F010E0CE0101960E9439024B
:1004E0001123F9F086E191E00E944D018BE191E04A
:1004F0000E944D014091CC015091CD016091C80105
:100500007091C9018BE291E00E9460008BE191E063
:100510000E944D016DE171E088EC91E00E940202C1
:1005200032C01A8219821C821B821E821D820F8396
:100530001886BE01695F7F4FCE0101960E940202BC
:1005400068EC71E0CE0107960E9430024D815E8119
:1005500069817A81CE0107960E948801811104C0C9
:10056000CE0107960E94B601BE01695F7F4F88ECFD
:1005700091E00E941902CE0107960E943902CE0135
:1005800001960E9439022C960FB6F894DEBF0FBE7A
:10059000CDBFDF91CF911F910F9108950E94B900B7
:1005A00081110C943E0208951F920F920FB60F9284
:1005B00011242F933F938F939F93AF93BF93809179
:1005C000270190912801A0912901B0912A01309131
:1005D000260123E0230F2D3720F40196A11DB11D24
:1005E00005C026E8230F0296A11DB11D2093260108
:1005F0008093270190932801A0932901B0932A01A9
:100600008091220190912301A0912401B0912501B4
:100610000196A11DB11D8093220190932301A09307
:100620002401B0932501BF91AF919F918F913F918C
:100630002F910F900FBE0F901F9018951F920F9241
:100640000FB60F9211242F933F934F935F936F93A5
:100650007F938F939F93AF93BF93EF93FF938BE21F
:1006600091E00E94C300FF91EF91BF91AF919F91E4
:100670008F917F916F915F914F913F912F910F904B
:100680000FBE0F901F9018951F920F920FB60F92EA
:1006900011242F938F939F93EF93FF93E0913B014E
:1006A000F0913C018081E0914101F091420182FD95
:1006B00012C09081809144018F5F8F73209145011A
:1006C000821751F0E0914401F0E0E55DFE4F958F17
:1006D0008093440101C08081FF91EF919F918F91A0
:1006E0002F910F900FBE0F901F901895EBE2F1E045
:1006F0001382128288EE93E0A0E0B0E084839583B9
:10070000A683B7838AE091E09183808385EC90E0B3
:100710009587848784EC90E09787868780EC90E0CB
:10072000918B808B81EC90E0938B828B82EC90E0BC
:10073000958B848B86EC90E0978B868B118E128E36
:10074000138E148EE8ECF1E0118210821382128273
:100750001582148240E050E06DE171E0CF010C940D
:10076000E101CF93DF93CDB7DEB76E970FB6F89464
:10077000DEBF0FBECDBF789484B5826084BD84B5E2
:10078000816084BD85B5826085BD85B5816085BD8C
:1007900080916E00816080936E0010928100809144
:1007A00081008260809381008091810081608093CC
:1007B0008100809180008160809380008091B100F1
:1007C00084608093B1008091B00081608093B0001C
:1007D00080917A00846080937A0080917A008260B0
:1007E00080937A0080917A00816080937A00809172
:1007F0007A00806880937A001092C100E0913B01FA
:10080000F0913C0182E08083E0913701F091380162
:100810001082E0913901F0913A0187E080831092D3
:100820004301E0913F01F091400186E08083E09137
:100830003D01F0913E01808180618083E0913D0126
:10084000F0913E01808188608083E0913D01F091CC
:100850003E01808180688083E0913D01F0913E01FE
:1008600080818F7D80838E010F5F1F4FC12CD12C23
:100870001C8A1B8A1E8A1D8A188E1F8A4AE0B801AC
:10088000C6010E94C004B801CE0143960E94020234
:10089000BE016D5E7F4FC8010E9430026EE171E0C3
:1008A000C8010E94C801BC01CE0149960E943002D5
:1008B000C8010E943902CE0143960E9439028C2D54
:1008C000806480937C0080917A00806480937A00B9
:1008D00080917A0086FDFCCFE090780080917900CD
:1008E000F12CF82ABE01675E7F4FCE0143960E942D
:1008F00030024AE0B801C7010E94C004F80101902B
:100900000020E9F73197AF01401B510BB801CE0130
:1009100043960E948801811104C0CE0143960E9433
:10092000B6016FE171E0CE0143960E94C801BC019F
:10093000C8010E943002CE0143960E943902CE01C6
:1009400049960E9439024D815E8169817A818BE2EC
:1009500091E00E946000C8010E943902CA94CD282B
:1009600021F0CC24C394D12C83CF8BE191E00E9461
:100970004D010E94CE027ACF88EC91E00C943902AE
:10098000BB274A3031F4992322F4BDE2909581953A
:100990009F4F0C94CC04BB27FB015527AA27880F37
:1009A000991FAA1FA41710F0A41B83955051B9F7E3
:1009B000A05DAA3308F0A95DA193009779F7B11162
:1009C000B1931192CB010C94E504DC01FC01672F7B
:1009D00071917723E1F7329704C07C916D93708316
:1009E0006291AE17BF07C8F308952F923F924F92BE
:1009F0005F926F927F928F929F92AF92BF92CF92AF
:100A0000DF92EF92FF920F931F93CF93DF93CDB7B7
:100A1000DEB7CA1BDB0B0FB6F894DEBF0FBECDBF2F
:100A200009942A88398848885F846E847D848C8400
:100A30009B84AA84B984C884DF80EE80FD800C8109
:100A40001B81AA81B981CE0FD11D0FB6F894DEBFEC
:100A50000FBECDBFED010895EE0FFF1F0590F4917D
:100A6000E02D0994CF93DF938230910510F482E05A
:100A700090E0E091D001F091D10120E030E0C0E0C1
:100A8000D0E0309711F14081518148175907C0F0EB
:100A90004817590761F482819381209719F09B834D
:100AA0008A832BC09093D1018093D00126C0211559
:100AB000310519F04217530718F49A01BE01DF01FE
:100AC000EF010280F381E02DDCCF2115310509F122
:100AD000281B390B2430310590F412968D919C918E
:100AE00013976115710521F0FB019383828304C084
:100AF0009093D1018093D001FD01329644C0FD0155
:100B0000E20FF31F81939193225031092D933C936F
:100B10003AC02091CE013091CF01232B41F4209196
:100B20000201309103013093CF012093CE01209137
:100B30000001309101012115310541F42DB73EB777
:100B40004091040150910501241B350BE091CE0129
:100B5000F091CF01E217F307A0F42E1B3F0B2817EB
:100B6000390778F0AC014E5F5F4F2417350748F026
:100B70004E0F5F1F5093CF014093CE01819391930D
:100B800002C0E0E0F0E0CF01DF91CF9108950F9334
:100B90001F93CF93DF93009709F48CC0FC01329729
:100BA000138212820091D0011091D101011511051B
:100BB00081F420813181820F931F2091CE013091E9
:100BC000CF012817390779F5F093CF01E093CE01D3
:100BD00071C0D80140E050E0AE17BF0750F4129644
:100BE0002D913C911397AD012115310509F1D901E2
:100BF000F3CF9D01DA013383228360817181860FF7
:100C0000971F8217930769F4EC0128813981260F19
:100C1000371F2E5F3F4F318320838A819B819383CF
:100C20008283452B29F4F093D101E093D00142C097
:100C30001396FC93EE931297ED01499159919E0101
:100C4000240F351FE217F30771F480819181840F1F
:100C5000951F029611969C938E9382819381139691
:100C60009C938E931297E0E0F0E0D80112968D915C
:100C70009C911397009719F0F8018C01F6CF8D9194
:100C80009C9198012E5F3F4F820F931F2091CE01C0
:100C90003091CF012817390769F4309729F4109261
:100CA000D1011092D00102C0138212821093CF01A1
:100CB0000093CE01DF91CF911F910F910895A0E095
:100CC000B0E0E5E6F6E00C94F904EC01009721F4BD
:100CD000CB010E943205B8C0FC01E60FF71F9C0152
:100CE00022503109E217F30708F4ACC0D9010D9185
:100CF0001C91119706171707B0F00530110508F47D
:100D00009FC0C80104978617970708F499C002503E
:100D10001109061B170B019311936D937C93CF015F
:100D20000E94C7058DC05B01A01AB10A4C01800E5C
:100D3000911EA091D001B091D10140E050E0E12C92
:100D4000F12C109709F44AC0A815B905D1F56D909A
:100D50007C901197630182E0C80ED11CCA14DB0499
:100D600080F1A3014A195B096A0182E0C80ED11C17
:100D70001296BC9012971396AC91B5E0CB16D104A5
:100D800040F0B282A38351834083D9016D937C9359
:100D90000AC00E5F1F4FC301800F911FF90191839D
:100DA0008083EB2DFA2FE114F10431F0D701139673
:100DB000FC93EE93129744C0F093D101E093D001DD
:100DC0003FC08D919C9111974817590708F4AC01C9
:100DD0007D0112960D90BC91A02DB3CF8091CE01D4
:100DE0009091CF0188159905E1F446175707C8F48B
:100DF0008091000190910101009741F48DB79EB759
:100E00004091040150910501841B950BE817F907E7
:100E1000C8F4F093CF01E093CE01F90171836083B0
:100E20000FC0CB010E9432057C01009759F0A80148
:100E3000BE010E942E07CE010E94C705C70104C053
:100E4000CE0102C080E090E0CDB7DEB7EEE00C94BA
:100E5000150581E090E0F8940C944707FB01DC0154
:100E600002C001900D9241505040D8F70895FB0107
:100E7000DC018D91019080190110D9F3990B08952F
:100E8000FB01DC0101900D920020E1F7089510E0D4
:100E9000C5E3D0E004C0FE010E942C052196C633B4
:080EA000D107C9F7F894FFCF58
:100EA8000000D201800000000000E4006000AD00F6
:100EB8008B009F002B0172656375000D0A003A20B4
:020EC800000028
:107E0000112484B714BE81FFF0D085E080938100F7
:107E100082E08093C00088E18093C10086E0809377
:107E2000C20080E18093C4008EE0C9D0259A86E02C
:107E300020E33CEF91E0309385002093840096BBD3
:107E4000B09BFECF1D9AA8958150A9F7CC24DD24C4
:107E500088248394B5E0AB2EA1E19A2EF3E0BF2EE7
:107E6000A2D0813461F49FD0082FAFD0023811F036
:107E7000013811F484E001C083E08DD089C08234E0
:107E800011F484E103C0853419F485E0A6D080C0E4
:107E9000853579F488D0E82EFF2485D0082F10E0AE
:107EA000102F00270E291F29000F111F8ED06801E7
:107EB0006FC0863521F484E090D080E0DECF843638
:107EC00009F040C070D06FD0082F6DD080E0C81688
:107ED00080E7D80618F4F601B7BEE895C0E0D1E017
:107EE00062D089930C17E1F7F0E0CF16F0E7DF06D8
:107EF00018F0F601B7BEE89568D007B600FCFDCFD4
:107F0000A601A0E0B1E02C9130E011968C91119780
:107F100090E0982F8827822B932B1296FA010C0160
:107F200087BEE89511244E5F5F4FF1E0A038BF0790
:107F300051F7F601A7BEE89507B600FCFDCF97BE46
:107F4000E89526C08437B1F42ED02DD0F82E2BD052
:107F50003CD0F601EF2C8F010F5F1F4F84911BD097
:107F6000EA94F801C1F70894C11CD11CFA94CF0C13
:107F7000D11C0EC0853739F428D08EE10CD085E9AC
:107F80000AD08FE07ACF813511F488E018D01DD067
:107F900080E101D065CF982F8091C00085FFFCCF94
:107FA0009093C60008958091C00087FFFCCF809118
:107FB000C00084FD01C0A8958091C6000895E0E648
:107FC000F0E098E1908380830895EDDF803219F02E
:107FD00088E0F5DFFFCF84E1DECF1F93182FE3DFCA
:107FE0001150E9F7F2DF1F91089580E0E8DFEE27F6
:047FF000FF270994CA
:027FFE00040479
:0400000300007E007B
:00000001FF
